:020000040800F2
:1000000000000120F9150008091300081113000869
:1000100021130008271300082D130008000000001A
:100020000000000000000000000000003313000882
:1000300041130008000000004F1300085D13000882
:100040004916000849160008491600084916000814
:100050004916000849160008491600084916000804
:1000600049160008491600084916000849160008F4
:1000700049160008491600084916000849160008E4
:10008000491600084916000849160008000000003B
:1000900000000000000000000000000049160008F9
:1000A00049160008491600084916000849160008B4
:1000B00049160008491600084916000849160008A4
:1000C0004916000849160008491600084916000894
:1000D00049160008491600084916000800000000EB
:1000E00049160008491600084916000800000000DB
:1000F0000000000000000000000000004916000899
:1001000000000000491600084916000849160008BA
:1001100000000000000000000000000000000000DF
:100120004916000849160008491600084916000833
:100130004916000800000000000000000000000058
:100140000000000000000000000000004916000848
:100150004916000849160008491600084916000803
:1001600049160008491600080000000000000000C1
:10017000000000000000000000000000000000007F
:100180000000000049160008000000000000000008
:040190004916000804
:1001A00010B5054C237833B9044B13B10448AFF3B1
:1001B00000800123237010BD7C000020000000009F
:1001C0004C42000808B5034B1BB103490348AFF389
:1001D000008008BD00000000800000204C420008A4
:1001E00001F0FF01102A2BDB10F0070F08D010F8E8
:1001F000013B013A8B422DD010F0070F42B3F6D1EC
:10020000F0B441EA012141EA014122F007047FF004
:1002100000070023F0E80256083C85EA010586EA5B
:10022000010685FA47F5A3FA87F586FA47F6A5FA97
:1002300087F68EB9EED1F0BC01F0FF0102F00702A3
:1002400032B110F8013B013A83EA010313B1F8D14E
:100250000020704701387047002D06BF354603382F
:10026000073815F0010F07D1013015F4807F02BF68
:10027000013015F4C03F0130F0BC0138704700BFB9
:1002800053B94AB9002908BF00281CBF4FF0FF31FD
:100290004FF0FF3000F074B9ADF1080C6DE904CEF9
:1002A00000F006F8DDF804E0DDE9022304B0704751
:1002B0002DE9F047089D04468E46002B4DD18A4219
:1002C000944669D9B2FA82F252B101FA02F3C2F14C
:1002D000200120FA01F10CFA02FC41EA030E9440DD
:1002E0004FEA1C48210CBEFBF8F61FFA8CF708FBFE
:1002F00016E341EA034306FB07F199420AD91CEBD6
:10030000030306F1FF3080F01F81994240F21C8107
:10031000023E63445B1AA4B2B3FBF8F008FB10334F
:1003200044EA034400FB07F7A7420AD91CEB040484
:1003300000F1FF3380F00A81A74240F20781644454
:10034000023840EA0640E41B00261DB1D4400023D9
:10035000C5E900433146BDE8F0878B4209D9002D3D
:1003600000F0EF800026C5E9000130463146BDE8C7
:10037000F087B3FA83F6002E4AD18B4202D3824231
:1003800000F2F980841A61EB030301209E46002DE0
:10039000E0D0C5E9004EDDE702B9FFDEB2FA82F235
:1003A000002A40F09280A1EB0C014FEA1C471FFA93
:1003B0008CFE0126200CB1FBF7F307FB131140EA7A
:1003C00001410EFB03F0884208D91CEB010103F147
:1003D000FF3802D2884200F2CB804346091AA4B209
:1003E000B1FBF7F007FB101144EA01440EFB00FEDD
:1003F000A64508D91CEB040400F1FF3102D2A64542
:1004000000F2BB800846A4EB0E0440EA03409CE7E0
:10041000C6F12007B34022FA07FC4CEA030C20FA8D
:1004200007F401FA06F31C43F9404FEA1C4900FAAD
:1004300006F3B1FBF9F8200C1FFA8CFE09FB18112A
:1004400040EA014108FB0EF0884202FA06F20BD99D
:100450001CEB010108F1FF3A80F08880884240F2ED
:100460008580A8F102086144091AA4B2B1FBF9F031
:1004700009FB101144EA014100FB0EFE8E4508D92C
:100480001CEB010100F1FF346CD28E456AD90238B1
:10049000614440EA0840A0FB0294A1EB0E01A14296
:1004A000C846A64656D353D05DB1B3EB080261EB04
:1004B0000E0101FA07F722FA06F3F1401F43C5E9DE
:1004C000007100263146BDE8F087C2F12003D84014
:1004D0000CFA02FC21FA03F3914001434FEA1C4756
:1004E0001FFA8CFEB3FBF7F007FB10360B0C43EA48
:1004F000064300FB0EF69E4204FA02F408D91CEBF8
:10050000030300F1FF382FD29E422DD902386344F5
:100510009B1B89B2B3FBF7F607FB163341EA034195
:1005200006FB0EF38B4208D91CEB010106F1FF38E4
:1005300016D28B4214D9023E6144C91A46EA0046DB
:1005400038E72E46284605E70646E3E61846F8E66D
:100550004B45A9D2B9EB020864EB0C0E0138A3E7B6
:100560004646EAE7204694E74046D1E7D0467BE797
:10057000023B614432E7304609E76444023842E70F
:10058000704700BF80B582B000AF0023FB7101232C
:10059000BB7100237B714FF480720021594803F036
:1005A000DFF94FF0FF3301225649574802F02AFE87
:1005B0000346BB71BB79002B02D00023FB719CE08A
:1005C000504B1B787B717B799AB24FF0FF334F49C8
:1005D0004D4802F017FE0346BB71BB79002B02D0D9
:1005E0000023FB7189E0474B5B78103B112B7ED8D1
:1005F00001A252F823F000BF410600084D06000892
:100600005906000865060008710600087D06000806
:100610008906000895060008A7060008B906000824
:10062000EF060008EF060008EF060008EF060008D6
:10063000EF060008EF060008CB060008DD060008FC
:10064000304800F04DF90123FB7156E02D4800F0D1
:100650008DF90123FB7150E02A4800F0C7F901230E
:10066000FB714AE0274800F00DFA0123FB7144E0DA
:10067000244800F04DFA0123FB713EE0214800F0D0
:10068000B5FA0123FB7138E01E4800F021FB01237D
:10069000FB7132E01E4800F0ADFC1A4800F09EFBF2
:1006A0000123FB7129E01B4800F0A4FC154800F071
:1006B0009FFB0123FB7120E0174800F09BFC1148D1
:1006C00000F0A0FB0123FB7117E0144800F092FC3E
:1006D0000C4800F0A1FB0123FB710EE0104800F074
:1006E00089FC084800F0A2FB0123FB7105E00D48DE
:1006F00000F080FC0023FB7100BFFB79184608372F
:10070000BD4680BD98000020E8010020990000202F
:1007100064420008A8420008E442000810430008B0
:100720002C4300087443000880B584B000AF124B1E
:100730001B68FB60114B1B68BB60BB687B6002F0F1
:1007400085FB4FF400510E4801F02AFE0D4801F0E0
:10075000F0F80D4802F095FC0C4802F092FCFB68A2
:100760003B603B6883F3088800BF7B68984700BF05
:100770001037BD4680BD00BF00C0000804C000089F
:100780000008024098010020A4010020E801002098
:1007900080B485B000AF78600023FB737B68B3F151
:1007A000006F06D37B680D4A934202D80123FB7386
:1007B0000CE07B68B3F1005F06D37B68084A934284
:1007C00002D80123FB7301E00023FB73FB7B184677
:1007D0001437BD465DF8047B704700BF0000040875
:1007E0000000012080B588B000AFF860B9607A6081
:1007F0000023FB770023BB610023FB7500233B61D3
:100800000023FB750FE0FB7DFA6813441B783B6106
:1008100007F1100301221946104801F0BAF8B86137
:10082000FB7D0133FB75FB7DBA689A42EBD80B4B1D
:100830001B689A68094B1B6842F001029A60BA690A
:100840007B689A4202D10123FB7701E00023FB770A
:10085000FB7F18462037BD4680BD00BF98010020B1
:1008600080B584B000AF0346FB710023BB81CD236C
:100870003B73FB797B7307F10C014FF0FF330222CE
:10088000034802F02DFC00BF1037BD4680BD00BFFD
:10089000E801002080B582B000AFAB23FB71F91DE9
:1008A0004FF0FF330122034802F01AFC00BF083763
:1008B000BD4680BDE801002080B582B000AF786001
:1008C00039603B689AB24FF0FF337968034802F011
:1008D00007FC00BF0837BD4680BD00BFE80100200F
:1008E00080B586B000AF78601C4BBB600023FB82F4
:1008F00000233B610023FB73FFF716FF184800F04D
:1009000079FB7B681B789BB20133FB82FB8A043B3B
:100910007A6813441B683B61FB8A043B3A691946B9
:100920007868FFF75FFF0346FB73FB7B012B0CD15D
:100930000420FFF795FF07F1080304211846FFF78D
:10094000BBFF084800F056FB04E0FFF7A3FF064892
:1009500000F050FB00BF1837BD4680BD64010503A1
:10096000A4430008D0430008F043000880B586B0D7
:1009700000AF78600023FB8200233B610023FB7300
:10098000164800F037FB7B681B789BB20133FB8273
:10099000FB8A043B7A6813441B683B61FB8A043B77
:1009A0003A6919467868FFF71DFF0346FB73FB7B26
:1009B000012B0AD10C20FFF753FF0C210848FFF749
:1009C0007BFF084800F016FB04E0FFF763FF0648D2
:1009D00000F010FB00BF1837BD4680BD0C44000876
:1009E00000000020D0430008F043000880B586B026
:1009F00000AF78600023FB8200233B610023FB7380
:100A00000023BB811B4800F0F5FA7B681B789BB282
:100A10000133FB82FB8A043B7A6813441B683B6109
:100A2000FB8A043B3A6919467868FFF7DBFE034608
:100A3000FB73FB7B012B13D10F4B1B689BB2C3F3E2
:100A40000B039BB2BB810220FFF70AFF07F10C03E7
:100A500002211846FFF730FF084800F0CBFA04E007
:100A6000FFF718FF064800F0C5FA00BF1837BD466B
:100A700080BD00BF40440008002004E0D0430008CF
:100A8000F043000880B586B000AF78600023FB8299
:100A900000233B610023FB730023BB73194800F064
:100AA000A9FA7B681B789BB20133FB82FB8A043B6B
:100AB0007A6813441B683B61FB8A043B3A69194618
:100AC0007868FFF78FFE0346FB73FB7B012B10D189
:100AD0000D4800F08FFA0120FFF7C2FE00F0B0F9D8
:100AE0000346BB7307F10E0301211846FFF7E4FE2E
:100AF00004E0FFF7CFFE054800F07CFA00BF18378E
:100B0000BD4680BD6C440008D0430008F043000897
:100B100080B588B000AF78600023FB830023BB6101
:100B20000023FB7500233B610023FB72294800F082
:100B300061FA7B681B789BB20133FB83FB8B043B20
:100B40007A6813441B68BB61FB8B043BBA69194686
:100B50007868FFF747FE0346FB75FB7D012B2FD11D
:100B60001D4800F047FA0120FFF77AFE7B68D3F8B2
:100B700002303B613869FFF70BFE0346FB72FB7ADC
:100B8000012B13D1154800F035FA07F10B030121B1
:100B90001846FFF791FE3B6943F00103FB60F968DB
:100BA0000F4800F027FAFB6898470EE00D4800F068
:100BB00021FA07F10B0301211846FFF77DFE04E03F
:100BC000FFF768FE084800F015FA00BF2037BD4661
:100BD00080BD00BF94440008D0430008C044000812
:100BE000E4440008F8440008F043000880B586B0EB
:100BF00000AF78600023FB8200233B610023FB737E
:100C00000223BB732C4800F0F5F97B681B789BB27C
:100C10000133FB82FB8A043B7A6813441B683B6107
:100C2000FB8A043B3A6919467868FFF7DBFD034607
:100C3000FB73FB7B012B35D1204800F0DBF9012051
:100C4000FFF70EFE7B6802331A787B6803331B784C
:100C50001946104600F05AF90346BB73BB7B032BC1
:100C600009D1174800F0C6F907F10E030121184613
:100C7000FFF722FE1BE0BB7B022B09D1114800F0DD
:100C8000B9F907F10E0301211846FFF715FE0EE032
:100C90000D4800F0AFF907F10E0301211846FFF7E8
:100CA0000BFE04E0FFF7F6FD084800F0A3F900BFD3
:100CB0001837BD4680BD00BF18450008D043000866
:100CC00048450008644500087C450008F0430008DA
:100CD00080B588B000AF78600023FB830023BB6140
:100CE0000023FB7500233B610023FB730023BB73D0
:100CF00000237B73324800F07DF97B681B789BB240
:100D00000133FB83FB8B043B7A6813441B68BB6194
:100D1000FB8B043BBA6919467868FFF763FD03460D
:100D2000FB75FB7D012B41D1264800F063F90120C2
:100D3000FFF796FD7B68D3F802303B617B689B79B7
:100D4000FB733869FFF724FD0346BB73BB7B012BA4
:100D500022D11D4800F04EF97B680733FA7B3969D0
:100D6000184600F07AF803467B737B7B012B09D190
:100D700007F10D0301211846FFF79EFD134800F00F
:100D800039F918E007F10D0301211846FFF794FD2A
:100D90000F4800F02FF90EE00E4800F02BF907F194
:100DA0000E0301211846FFF787FD04E0FFF772FDEF
:100DB000094800F01FF900BF2037BD4680BD00BFC5
:100DC00098450008D0430008C0440008CC450008FE
:100DD000E0450008F8440008F043000880B483B000
:100DE00000AF786000BF0C37BD465DF8047B7047EC
:100DF00080B483B000AF786000BF0C37BD465DF8AB
:100E0000047B704780B483B000AF786000BF0C37BC
:100E1000BD465DF8047B704780B483B000AF786056
:100E200000BF0C37BD465DF8047B704780B483B0CB
:100E300000AF786000BF0C37BD465DF8047B70479B
:100E400080B588B000AF3B1D184601F003F87B6900
:100E5000DBB218462037BD4680BDB0B586B000AFC6
:100E6000F860B9607A600123FB750023BB7500232D
:100E7000BB8200F00DFE0346FB75FB7D002B02D00C
:100E80000023BB7527E00023BB8220E0BA8ABB6841
:100E9000D118BB8AFA6813441B78DBB200221C46C7
:100EA000154622462B46002000F09EFD0346FB75AA
:100EB000FB7D002B06D00023BB7500F00BFE034624
:100EC000FB7508E00123BB75BB8A0133BB82BB8A7B
:100ED0007A689A42DAD8BB7D012B0FD1FB7D002BBB
:100EE0000CD100F0F7FD0346FB75FB7D002B02D013
:100EF0000023BB7504E00123BB7501E00023BB7533
:100F0000BB7D18461837BD46B0BD000080B58AB01D
:100F100000AF03460A46FB711346BB71012387F8F5
:100F20002630002387F82730002387F82530002358
:100F30003B62BB79082B03D9002387F827304FE0A9
:100F4000FB79072B02D9FB79FF2B46D1FB79FF2BCD
:100F500005D10123FB60254800F04CF812E0FB7935
:100F6000C3F1080387F82530BA7997F825309A42FB
:100F700002D997F82530BB710023FB60FB797B61B8
:100F8000BB79BB6101233B610223FB6100F080FD63
:100F9000034687F8263007F1200207F10C031146BB
:100FA000184600F0E7FE034687F826303B6AB3F1A7
:100FB000FF3F03D1032387F8273002E0022387F89D
:100FC000273000F087FD034687F8263097F8263053
:100FD0001946074800F00EF802E0002387F8273092
:100FE00097F8273018462837BD4680BDF4450008DD
:100FF0002C4600080FB480B59AB000AF00237B6088
:1010000007F1080360220021184602F0A9FC07F14D
:1010100074033B603B1D3A68396F184602F0BEFC12
:10102000391D4FF0FF336422044802F059F800BF25
:101030006837BD46BDE8804004B07047A401002079
:1010400080B500AF064B074A1A60054800F055FC12
:101050000346002B01D000F029F900BF80BD00BF7E
:10106000980100200030024080B485B000AF786065
:101070007B681B680B4A93420DD10023FB600A4B2F
:101080001B6B094A43F480531363074B1B6B03F438
:101090008053FB60FB6800BF1437BD465DF8047BDE
:1010A000704700BF003002400038024080B483B077
:1010B00000AF78607B681B68074A934205D1074BF5
:1010C0001B6B064A23F48053136300BF0C37BD46E5
:1010D0005DF8047B704700BF0030024000380240DA
:1010E00080B58AB000AF07F1140300221A605A607D
:1010F0009A60DA601A6100233B61274B1B6B264A1A
:1011000043F004031363244B1B6B03F004033B61A4
:101110003B690023FB60204B1B6B1F4A43F080039D
:1011200013631D4B1B6B03F08003FB60FB68002304
:10113000BB60194B1B6B184A43F001031363164B3A
:101140001B6B03F00103BB60BB6800237B60124B89
:101150001B6B114A43F0020313630F4B1B6B03F02D
:1011600002037B607B6800224FF400510B4801F0C2
:10117000FBF94FF400537B610123BB610023FB614A
:1011800000233B6207F114031946044800F084FF72
:1011900000BF2837BD4680BD00380240000802402D
:1011A00080B582B000AF0023FB7100F04FFA00F071
:1011B00013F8FFF795FFFFF743FF00F01DF900F06C
:1011C00045F90448FFF716FFFFF7DCF90346FB710A
:1011D000FAE700BF5C46000880B594B000AF07F1A5
:1011E000200330220021184602F0BAFB07F10C035D
:1011F00000221A605A609A60DA601A610023BB60AC
:10120000284B1B6C274A43F080531364254B1B6CFF
:1012100003F08053BB60BB6800237B60224B1B68DC
:1012200023F44043204A43F4004313601E4B1B68E1
:1012300003F440437B607B6802233B620123FB6233
:1012400010233B630223BB630023FB6308233B643F
:1012500054237B640223BB640423FB6407F1200353
:10126000184601F09BF90346002B01D000F01EF850
:101270000F23FB6002233B6100237B614FF480530B
:10128000BB610023FB6107F10C030221184601F04A
:10129000FDFB0346002B01D000F008F800BF5037DB
:1012A000BD4680BD003802400070004080B400AFF1
:1012B00072B600BFFEE7000080B483B000AF002329
:1012C0007B60104B5B6C0F4A43F4804353640D4BBF
:1012D0005B6C03F480437B607B6800233B60094BBD
:1012E0001B6C084A43F080531364064B1B6C03F0DD
:1012F00080533B603B6800BF0C37BD465DF8047B04
:10130000704700BF0038024080B400AFFEE7000025
:1013100080B500AF0148FFF76DFEFEE77446000898
:1013200080B400AFFEE780B400AFFEE780B400AF4A
:10133000FEE780B400AF00BFBD465DF8047B704798
:1013400080B400AF00BFBD465DF8047B704780B439
:1013500000AF00BFBD465DF8047B704780B500AFAD
:1013600000F0C6F900BF80BD80B586B000AF7860E0
:10137000144A154BD31A7B617B693B61134B1B6885
:10138000002B02D1114B124A1A60104B1A687B686D
:1013900013443A699A4207D202F0B8FA03460C2283
:1013A0001A604FF0FF3309E0084B1B68FB60074BE6
:1013B0001A687B681344054A1360FB68184618379F
:1013C000BD4680BD0000012000040000A0010020F7
:1013D0006002002080B400AF064BD3F88830054A85
:1013E00043F47003C2F8883000BFBD465DF8047B4B
:1013F000704700BF00ED00E080B500AF114B124A0E
:101400001A60104B4FF4E1325A600E4B00229A6082
:101410000C4B0022DA600B4B00221A61094B0C22A4
:101420005A61084B00229A61064B0022DA61054896
:1014300001F0DAFD0346002B01D0FFF737FF00BFB4
:1014400080BD00BFA40100200010014080B500AFA6
:10145000114B124A1A60104B4FF4E1325A600E4B96
:1014600000229A600C4B0022DA600B4B00221A61BA
:10147000094B0C225A61084B00229A61064B00224C
:10148000DA61054801F0B0FD0346002B01D0FFF7FB
:101490000DFF00BF80BD00BFE801002000440040F8
:1014A00080B58CB000AF786007F11C0300221A6091
:1014B0005A609A60DA601A617B681B68324A93420C
:1014C0002DD10023BB61314B5B6C304A43F01003DC
:1014D00053642E4B5B6C03F01003BB61BB690023AC
:1014E0007B612A4B1B6B294A43F001031363274B93
:1014F0001B6B03F001037B617B694FF4C063FB61ED
:1015000002233B6200237B620323BB620723FB624F
:1015100007F11C0319461E4800F0BEFD30E07B6851
:101520001B681C4A93422BD100233B61174B1B6C59
:10153000164A43F400331364144B1B6C03F400335A
:101540003B613B690023FB60104B1B6B0F4A43F070
:10155000010313630D4B1B6B03F00103FB60FB687E
:101560000C23FB6102233B6200237B620323BB62EB
:101570000723FB6207F11C031946054800F08CFDA8
:1015800000BF3037BD4680BD00100140003802402A
:10159000000002400044004080B582B000AF786097
:1015A0007B681B68104A93420BD1104B5B6C0F4A4F
:1015B00023F0100353644FF4C0610D4800F0F0FEB7
:1015C0000EE07B681B680B4A934209D1074B1B6CEA
:1015D000064A23F4003313640C21054800F0E0FEB2
:1015E00000BF0837BD4680BD0010014000380240F2
:1015F0000000024000440040DFF834D00D480E499E
:101600000E4A002302E0D458C4500433C4188C425C
:10161000F9D30B4A0B4C002301E013600432A242C1
:10162000FBD3FFF7D7FE02F077F9FFF7B9FD70475C
:1016300000000120000000207C000020DC460008A3
:101640007C00002060020020FEE7000080B500AFB3
:101650000E4B1B680D4A43F4007313600B4B1B6861
:101660000A4A43F480631360084B1B68074A43F43B
:1016700080731360032000F00DF90F2000F008F8CC
:10168000FFF71AFE0023184680BD00BF003C024051
:1016900080B582B000AF7860124B1A68124B1B788D
:1016A00019464FF47A73B3FBF1F3B2FBF3F3184628
:1016B00000F017F90346002B01D001230EE07B68F0
:1016C0000F2B0AD8002279684FF0FF3000F0EDF8B8
:1016D000064A7B681360002300E0012318460837A0
:1016E000BD4680BD0C00002014000020100000202A
:1016F00080B400AF064B1B781A46064B1B68134498
:10170000044A136000BFBD465DF8047B704700BF0C
:10171000140000202C02002080B400AF034B1B6893
:101720001846BD465DF8047B704700BF2C020020C0
:1017300080B485B000AF78607B6803F00703FB607E
:101740000C4BDB68BB60BA684FF6FF031340BB600D
:10175000FB681A02BB68134343F0BF6343F40033D2
:10176000BB60044ABB68D36000BF1437BD465DF858
:10177000047B704700ED00E080B400AF044BDB68F1
:101780001B0A03F007031846BD465DF8047B70474B
:1017900000ED00E080B483B000AF03463960FB7118
:1017A00097F90730002B0ADB3B68DAB20C4997F94E
:1017B00007301201D2B20B4483F800230AE03B68E1
:1017C000DAB20849FB7903F00F03043B1201D2B2ED
:1017D0000B441A7600BF0C37BD465DF8047B70479A
:1017E00000E100E000ED00E080B489B000AFF860F7
:1017F000B9607A60FB6803F00703FB61FB69C3F122
:101800000703042B28BF0423BB61FB690433062BA9
:1018100002D9FB69033B00E000237B614FF0FF32FC
:10182000BB6902FA03F3DA43BB681A407B699A404A
:101830004FF0FF317B6901FA03F3D9437B680B401A
:10184000134318462437BD465DF8047B70470000FB
:1018500080B582B000AF78607B68013BB3F1807FD8
:1018600001D301230FE00A4A7B68013B53600F213B
:101870004FF0FF30FFF78EFF054B00229A60044BBC
:1018800007221A60002318460837BD4680BD00BFF6
:1018900010E000E080B582B000AF78607868FFF7B4
:1018A00047FF00BF0837BD4680BD80B586B000AF9A
:1018B0000346B9607A60FB7300237B61FFF75CFF2E
:1018C00078617A68B9687869FFF78EFF024697F900
:1018D0000F3011461846FFF75DFF00BF1837BD46B1
:1018E00080BD80B582B000AF78607868FFF7B0FF48
:1018F000034618460837BD4680BD80B582B000AFAC
:1019000078607B68002B01D101230EE07B685B7956
:10191000DBB2002B05D17B6800221A717868FFF7D3
:10192000A3FB7B6801225A71002318460837BD4685
:1019300080BD80B582B000AF78607B68002B01D19C
:10194000012322E07B685B79DBB2022B01D1022309
:101950001BE07B6802225A717B681B689A687B686F
:101960001B6842F001029A607B681B681B797B68E8
:101970001B6800221A717868FFF798FB7B680022C9
:101980005A717B6800221A71002318460837BD4639
:1019900080BD80B487B000AFF860B9607A60002382
:1019A0003B61FB6802225A7100237B610AE07B697C
:1019B0009B00BA681A44FB681B6812681A607B694E
:1019C00001337B617A697B689A42F0D3FB681B68BC
:1019D0001B683B61FB6801225A713B6918461C3742
:1019E000BD465DF8047B704780B586B000AFF860F7
:1019F000B960C7E900230123FB75234B1B7E012B34
:101A000001D102233BE0204B01221A764CF25030E8
:101A100000F070F80346FB75FB7D002B2BD1FB68B3
:101A2000002B05D13B781946B86800F01BF916E089
:101A3000FB68012B05D13B881946B86800F0EEF829
:101A40000DE0FB68022B05D13B681946B86800F031
:101A5000C3F804E0D7E90023B86800F08BF84CF233
:101A6000503000F047F80346FB75084B1B69074AE6
:101A700023F001031361044B00221A76FB7D184604
:101A80001837BD4680BD00BF30020020003C024038
:101A900080B483B000AF0023FB710B4B1B69002B9C
:101AA0000BDA094B094A5A60074B094A5A60064B40
:101AB0001B69002B01DA0123FB71FB7918460C37F7
:101AC000BD465DF8047B7047003C0240230167453A
:101AD000AB89EFCD80B400AF054B1B69044A43F0DE
:101AE0000043136100231846BD465DF8047B704730
:101AF000003C024080B584B000AF78600023FB60FA
:101B00001A4B0022DA61FFF707FEF86010E07B68ED
:101B1000B3F1FF3F0CD07B68002B07D0FFF7FCFD33
:101B20000246FB68D31A7A689A4201D2032319E06D
:101B30000F4BDB6803F48033002BE8D10C4BDB68E0
:101B400003F00103002B02D0094B0122DA60084B9D
:101B5000DB6803F4F973002B03D000F0A5F8012330
:101B600000E0002318461037BD4680BD300200203B
:101B7000003C024080B485B000AFF860C7E90023A4
:101B8000144B1B69134A23F440731361114B1B69F7
:101B9000104A43F4407313610E4B1B690D4A43F026
:101BA00001031361FB683A681A60BFF36F8F00BFCF
:101BB000D7E900014FF000024FF000030A000023B4
:101BC000F968043113460B6000BF1437BD465DF859
:101BD000047B7047003C024080B483B000AF786063
:101BE00039600D4B1B690C4A23F4407313610A4B97
:101BF0001B69094A43F400731361074B1B69064ACA
:101C000043F0010313617B683A681A6000BF0C3728
:101C1000BD465DF8047B7047003C024080B483B051
:101C200000AF78600B467B800D4B1B690C4A23F498
:101C3000407313610A4B1B69094A43F480731361B3
:101C4000074B1B69064A43F0010313617B687A88DE
:101C50001A8000BF0C37BD465DF8047B704700BF9B
:101C6000003C024080B483B000AF78600B46FB704C
:101C70000C4B1B690B4A23F440731361094B094A4F
:101C80001B691361074B1B69064A43F0010313618B
:101C90007B68FA781A7000BF0C37BD465DF8047B8C
:101CA000704700BF003C024080B400AF2F4BDB68A0
:101CB00003F01003002B08D02D4BDB6943F0100319
:101CC0002B4AD361294B1022DA60284BDB6803F0E2
:101CD0002003002B08D0264BDB6943F00803244A7D
:101CE000D361224B2022DA60204BDB6803F04003F3
:101CF000002B08D01E4BDB6943F004031C4AD36160
:101D00001A4B4022DA60194BDB6803F08003002B8A
:101D100008D0174BDB6943F00203154AD361134B1C
:101D20008022DA60114BDB6803F48073002B09D04A
:101D30000F4BDB6943F001030D4AD3610B4B4FF4AA
:101D40008072DA60094BDB6803F00203002B08D0D5
:101D5000074BDB6943F02003054AD361034B0222A2
:101D6000DA6000BFBD465DF8047B7047003C02406E
:101D70003002002080B584B000AF78603960012364
:101D8000FB730023BB60314B1B7E012B01D102236F
:101D900058E02E4B01221A764CF25030FFF7AAFE83
:101DA0000346FB73FB7B002B48D13B684FF0FF32AF
:101DB0001A607B681B68012B15D17B681B69DAB23E
:101DC0007B685B681946104600F068F84CF25030AA
:101DD000FFF790FE0346FB731D4B1B691C4A23F063
:101DE0000403136128E07B689B68BB601CE07B6890
:101DF0001B69DBB21946B86800F074F84CF2503039
:101E0000FFF778FE0346FB73114B1B69104A23F062
:101E1000FA031361FB7B002B03D03B68BA681A609E
:101E20000AE0BB680133BB607B68DA687B689B684B
:101E30001344BA689A42DAD300F0E8F8034B002260
:101E40001A76FB7B18461037BD4680BD3002002055
:101E5000003C024080B582B000AF78607B680F2202
:101E60001A6000F097F803461A467B689A6000F003
:101E70009DF803461A467B681A6100F07BF803461A
:101E80001A467B681A7600F0B1F803461A467B685A
:101E90005A6100BF0837BD4680BD000080B483B0E2
:101EA00000AF03463960FB710D4B1B690C4A23F4EC
:101EB000407313610A4B1B69094A43F00403136121
:101EC000074B1A69FB791B021343054A43F480331D
:101ED000136100BF0C37BD465DF8047B704700BF3F
:101EE000003C024080B485B000AF78600B46FB70C8
:101EF0000023FB60FB78002B02D10023FB6010E085
:101F0000FB78012B03D14FF48073FB6009E0FB7871
:101F1000022B03D14FF40073FB6002E04FF44073D7
:101F2000FB60134B1B69124A23F440731361104B7F
:101F30001A690F49FB6813430B610D4B1B690C4A6F
:101F400023F0F80313610A4B1A697B68DB00134323
:101F5000074A43F002031361054B1B69044A43F42B
:101F60008033136100BF1437BD465DF8047B7047B2
:101F7000003C024080B400AF054B5B69DBB223F04C
:101F80001F03DBB21846BD465DF8047B704700BFF7
:101F9000003C024080B400AF034B1B889BB2184644
:101FA000BD465DF8047B7047163C024080B483B0A8
:101FB00000AFAA23FB710C4B1B78DBB2CC2B02D1F8
:101FC000CC23FB7109E0084B1B78DBB2AA2B02D1B2
:101FD000AA23FB7101E05523FB71FB7918460C37EE
:101FE000BD465DF8047B7047153C024080B400AFED
:101FF000054B1B78DBB203F00C03DBB21846BD4681
:102000005DF8047B704700BF143C024080B400AF11
:10201000204B1B6803F40073002B17D01D4B1B686B
:102020001C4A23F4007313601A4B1B68194A43F4CB
:1020300000631360174B1B68164A23F40063136098
:10204000144B1B68134A43F400731360114B1B6855
:1020500003F48063002B17D00E4B1B680D4A23F44A
:10206000806313600B4B1B680A4A43F48053136070
:10207000084B1B68074A23F480531360054B1B6809
:10208000044A43F48063136000BFBD465DF8047BDF
:10209000704700BF003C024080B489B000AF786058
:1020A000396000237B6100233B610023BB61002377
:1020B000FB6159E10122FB6902FA03F37B613B6892
:1020C0001B687A6913403B613A697B699A4240F028
:1020D00048813B685B6803F00303012B05D03B6834
:1020E0005B6803F00303022B30D17B689B68BB6104
:1020F000FB695B00032202FA03F3DB43BA69134076
:10210000BB613B68DA68FB695B0002FA03F3BA69FA
:102110001343BB617B68BA699A607B685B68BB618B
:102120000122FB6902FA03F3DB43BA691340BB6186
:102130003B685B681B0903F00102FB6902FA03F3C9
:10214000BA691343BB617B68BA695A603B685B68D4
:1021500003F00303032B17D07B68DB68BB61FB69CB
:102160005B00032202FA03F3DB43BA691340BB614D
:102170003B689A68FB695B0002FA03F3BA69134390
:10218000BB617B68BA69DA603B685B6803F0030394
:10219000022B23D1FB69DA087B68083253F822301E
:1021A000BB61FB6903F007039B000F2202FA03F3F4
:1021B000DB43BA691340BB613B681A69FB6903F0F2
:1021C00007039B0002FA03F3BA691343BB61FB697F
:1021D000DA087B680832B96943F822107B681B680B
:1021E000BB61FB695B00032202FA03F3DB43BA69BC
:1021F0001340BB613B685B6803F00302FB695B0053
:1022000002FA03F3BA691343BB617B68BA691A60C7
:102210003B685B6803F44033002B00F0A28000238E
:10222000FB60574B5B6C564A43F480435364544BFA
:102230005B6C03F48043FB60FB68524AFB699B08BC
:10224000023352F82330BB61FB6903F003039B00A8
:102250000F2202FA03F3DB43BA691340BB617B68C8
:10226000494A934219D07B68484A934213D07B680D
:10227000474A93420DD07B68464A934207D07B6819
:10228000454A934201D1042308E0072306E00323D3
:1022900004E0022302E0012300E00023FA6902F0D7
:1022A000030292009340BA691343BB613549FB694D
:1022B0009B080233BA6941F82320384B9B68BB6105
:1022C0003B69DB43BA691340BB613B685B6803F45D
:1022D0008013002B03D0BA693B691343BB612F4ABB
:1022E000BB6993602D4BDB68BB613B69DB43BA691B
:1022F0001340BB613B685B6803F40013002B03D001
:10230000BA693B691343BB61244ABB69D360234B61
:102310005B68BB613B69DB43BA691340BB613B68E7
:102320005B6803F40033002B03D0BA693B691343A5
:10233000BB611A4ABB695360184B1B68BB613B69A0
:10234000DB43BA691340BB613B685B6803F48033CD
:10235000002B03D0BA693B691343BB610F4ABB69C9
:102360001360FB690133FB61FB690F2B7FF6A2AEA3
:1023700000BF00BF2437BD465DF8047B704700BF37
:1023800000380240003801400000024000040240D2
:1023900000080240000C024000100240003C0140D6
:1023A00080B487B000AF7860396000233B610023C0
:1023B000FB600023BB6000237B61BBE001227B69E3
:1023C00002FA03F33B613A683B691340FB60FA6829
:1023D0003B699A4240F0AB805C4A7B699B080233C0
:1023E00052F82330BB607B6903F003039B000F228C
:1023F00002FA03F3BA681340BB607B68544A934205
:1024000019D07B68534A934213D07B68524A934257
:102410000DD07B68514A934207D07B68504A934263
:1024200001D1042308E0072306E0032304E002238C
:1024300002E0012300E000237A6902F00302920027
:102440009340BA689A4232D1464B1A68FB68DB4324
:10245000444913400B60434B5A68FB68DB434149D6
:1024600013404B603F4BDA68FB68DB433D49134048
:10247000CB603C4B9A68FB68DB433A4913408B6066
:102480007B6903F003039B000F2202FA03F3BB6096
:102490002E4A7B699B08023352F82310BB68DA434B
:1024A0002A487B699B080A40023340F823207B6856
:1024B0001A687B695B00032101FA03F3DB431A40CE
:1024C0007B681A607B69DA087B68083253F822104F
:1024D0007B6903F007039B000F2202FA03F3DB433F
:1024E0007A69D20819407B68083243F822107B6869
:1024F000DA687B695B00032101FA03F3DB431A40CE
:102500007B68DA607B685A6801217B6901FA03F312
:10251000DB431A407B685A607B689A687B695B0082
:10252000032101FA03F3DB431A407B689A607B695D
:1025300001337B617B690F2B7FF640AF00BF00BF8B
:102540001C37BD465DF8047B704700BF0038014072
:10255000000002400004024000080240000C02405B
:1025600000100240003C014080B483B000AF7860AE
:102570000B467B8013467B707B78002B03D07A88D8
:102580007B689A6103E07B881A047B689A6100BFCC
:102590000C37BD465DF8047B7047000080B586B0FF
:1025A00000AF78607B68002B01D1012367E27B6874
:1025B0001B6803F00103002B75D0884B9B6803F068
:1025C0000C03042B0CD0854B9B6803F00C03082BE9
:1025D00012D1824B5B6803F48003B3F5800F0BD1FB
:1025E0007E4B1B6803F40033002B5BD07B685B6879
:1025F000002B57D1012342E27B685B68B3F5803F33
:1026000006D1764B1B68754A43F4803313601DE096
:102610007B685B68B3F5A02F0CD1704B1B686F4AC9
:1026200043F4802313606D4B1B686C4A43F4803382
:1026300013600BE0694B1B68684A23F48033136016
:10264000664B1B68654A23F4802313607B685B68D4
:10265000002B13D0FFF760F8386108E0FFF75CF853
:1026600002463B69D31A642B01D9032307E25B4B73
:102670001B6803F40033002BF0D014E0FFF74CF894
:10268000386108E0FFF748F802463B69D31A642B2B
:1026900001D90323F3E1514B1B6803F40033002BF2
:1026A000F0D100E000BF7B681B6803F00203002B41
:1026B00063D04A4B9B6803F00C03002B0BD0474BB5
:1026C0009B6803F00C03082B1CD1444B5B6803F49C
:1026D0008003002B16D1414B1B6803F00203002B33
:1026E00005D07B68DB68012B01D00123C7E13B4BA0
:1026F0001B6823F0F8027B681B69DB003749134332
:102700000B603AE07B68DB68002B20D0344B012261
:102710001A60FFF701F8386108E0FEF7FDFF024696
:102720003B69D31A022B01D90323A8E12B4B1B6869
:1027300003F00203002BF0D0284B1B6823F0F802B3
:102740007B681B69DB00254913430B6015E0244BB4
:1027500000221A60FEF7E0FF386108E0FEF7DCFFB8
:1027600002463B69D31A022B01D9032387E11B4B95
:102770001B6803F00203002BF0D17B681B6803F099
:102780000803002B36D07B685B69002B16D0154BF5
:1027900001221A60FEF7C0FF386108E0FEF7BCFFB7
:1027A00002463B69D31A022B01D9032367E10B4B85
:1027B0005B6F03F00203002BF0D01BE0094B0022FB
:1027C0001A60FEF7A9FF38610EE0FEF7A5FF02468A
:1027D0003B69D31A022B07D9032350E1003802408A
:1027E00000004742800E4742884B5B6F03F00203B4
:1027F000002BEAD17B681B6803F00403002B00F078
:1028000097800023FB75814B1B6C03F08053002BDA
:102810000FD10023BB607D4B1B6C7C4A43F080537F
:1028200013647A4B1B6C03F08053BB60BB680123BD
:10283000FB75774B1B6803F48073002B18D1744B26
:102840001B68734A43F480731360FEF765FF3861B9
:1028500008E0FEF761FF02463B69D31A022B01D95B
:1028600003230CE16A4B1B6803F48073002BF0D048
:102870007B689B68012B06D1644B1B6F634A43F056
:10288000010313671CE07B689B68052B0CD15F4B31
:102890001B6F5E4A43F0040313675C4B1B6F5B4A7C
:1028A00043F0010313670BE0584B1B6F574A23F0AB
:1028B00001031367554B1B6F544A23F0040313673E
:1028C0007B689B68002B15D0FEF726FF38610AE075
:1028D000FEF722FF02463B69D31A41F28832934247
:1028E00001D90323CBE0494B1B6F03F00203002BFC
:1028F000EED014E0FEF710FF38610AE0FEF70CFF9F
:1029000002463B69D31A41F28832934201D903232C
:10291000B5E03E4B1B6F03F00203002BEED1FB7DB5
:10292000012B05D1394B1B6C384A23F080531364BB
:102930007B689B69002B00F0A180344B9B6803F0FF
:102940000C03082B5CD07B689B69022B41D1314B77
:1029500000221A60FEF7E0FE386108E0FEF7DCFEB8
:1029600002463B69D31A022B01D9032387E0274B88
:102970001B6803F00073002BF0D17B68DA697B6879
:102980001B6A1A437B685B6A9B011A437B689B6ADC
:102990005B08013B1B041A437B68DB6A1B061B496F
:1029A00013434B601B4B01221A60FEF7B5FE3861E2
:1029B00008E0FEF7B1FE02463B69D31A022B01D9AB
:1029C00003235CE0114B1B6803F00073002BF0D075
:1029D00054E0104B00221A60FEF79EFE386108E0BA
:1029E000FEF79AFE02463B69D31A022B01D9032354
:1029F00045E0064B1B6803F00073002BF0D13DE06F
:102A00007B689B69012B07D1012338E00038024025
:102A100000700040600047421B4B5B68FB607B68B6
:102A20009B69012B28D0FB6803F480027B68DB697B
:102A30009A4221D1FB6803F03F027B681B6A9A42ED
:102A40001AD1FA6847F6C07313407A68526A920145
:102A5000934211D1FB6803F440327B689B6A5B08A8
:102A6000013B1B049A4207D1FB6803F070627B684C
:102A7000DB6A1B069A4201D0012300E000231846BE
:102A80001837BD4680BD00BF0038024080B584B015
:102A900000AF786039607B68002B01D10123CCE066
:102AA000684B1B6803F007033A689A420CD9654BE0
:102AB0003A68D2B21A70634B1B6803F007033A6896
:102AC0009A4201D00123B8E07B681B6803F002033F
:102AD000002B20D07B681B6803F00403002B05D07B
:102AE000594B9B68584A43F4E05393607B681B68DA
:102AF00003F00803002B05D0534B9B68524A43F464
:102B000060439360504B9B6823F0F0027B689B68A6
:102B10004D4913438B607B681B6803F00103002B56
:102B200044D07B685B68012B07D1474B1B6803F4DB
:102B30000033002B19D101237FE07B685B68022BF7
:102B400003D07B685B68032B07D13F4B1B6803F006
:102B50000073002B09D101236FE03B4B1B6803F08E
:102B60000203002B01D1012367E0374B9B6823F060
:102B700003027B685B68344913438B60FEF7CCFD2E
:102B8000F8600AE0FEF7C8FD0246FB68D31A41F27E
:102B90008832934201D903234FE02B4B9B6803F00B
:102BA0000C027B685B689B009A42EBD1254B1B684B
:102BB00003F007033A689A420CD2224B3A68D2B229
:102BC0001A70204B1B6803F007033A689A4201D041
:102BD000012332E07B681B6803F00403002B08D05C
:102BE000194B9B6823F4E0527B68DB68164913435A
:102BF0008B607B681B6803F00803002B09D0124B25
:102C00009B6823F460427B681B69DB000E49134319
:102C10008B6000F021F802460B4B9B681B0903F008
:102C20000F030A49CB5C22FA03F3094A1360094BEC
:102C30001B681846FEF72CFD002318461037BD46CA
:102C400080BD00BF003C02400038024080460008C2
:102C50000C000020100000202DE9B04F90B000AF14
:102C600000237B630023FB6300233B630023BB63E0
:102C7000594B9B6803F00C03082B0DD0082B00F276
:102C8000A180002B02D0042B03D09BE0534BBB63ED
:102C90009BE0534BBB6398E04F4B5B6803F03F03F3
:102CA0007B634D4B5B6803F48003002B28D04A4BB9
:102CB0005B689B0900223B627A623B6AC3F30800AF
:102CC0000021474B03FB01F2002300FB03F31344F5
:102CD000434AA0FB0212FA620A46BA62FA6A134435
:102CE000FB627B6B0022BB61FA61D7E90623D7E95F
:102CF0000A01FDF7C5FA02460B461346FB6353E093
:102D0000354B5B689B0900223B617A613B69C3F3E9
:102D1000080A4FF0000B52465B464FF000004FF0A0
:102D20000001590141EAD261500102460B46B2EB63
:102D30000A0863EB0B094FF000024FF000034FEA63
:102D4000891343EA98634FEA8812B2EB080463EBF5
:102D500009054FF000024FF00003EB0043EA547303
:102D6000E20014461D4614EB0A033B6045EB0B03DF
:102D70007B604FF000024FF00003D7E90045294681
:102D80008B02214643EA915321468A021046194696
:102D90007B6B0022BB60FA60D7E90223FDF770FA73
:102DA00002460B461346FB630B4B5B681B0C03F0A0
:102DB000030301335B003B63FA6B3B6BB2FBF3F342
:102DC000BB6302E0054BBB6300BFBB6B18464037DB
:102DD000BD46BDE8B08F00BF003802400024F400BB
:102DE00040787D0180B400AF034B1B681846BD4698
:102DF0005DF8047B704700BF0C00002080B500AF79
:102E0000FFF7F0FF0246054B9B689B0A03F00703A0
:102E10000349CB5C22FA03F3184680BD0038024018
:102E20009046000880B500AFFFF7DCFF0246054B77
:102E30009B685B0B03F007030349CB5C22FA03F3A7
:102E4000184680BD003802409046000880B582B028
:102E500000AFFEF761FC78605D4B1B685C4A43F095
:102E60000103136008E0FEF757FC02467B68D31AA3
:102E7000022B01D90323A7E0554B1B6803F0020383
:102E8000002BF0D0524B1B68514A43F08003136073
:102E9000FEF742FC78604E4B00229A600AE0FEF793
:102EA0003BFC02467B68D31A41F28832934201D937
:102EB000032389E0464B9B6803F00C03002BEED103
:102EC000FEF72AFC7860424B1B68414A23F45023EA
:102ED000136008E0FEF720FC02467B68D31A642BDF
:102EE00001D9032370E03A4B1B6803F40033002B35
:102EF000F0D1FEF711FC7860354B1B68344A23F0A3
:102F00008073136008E0FEF707FC02467B68D31A63
:102F1000022B01D9032357E02D4B1B6803F00073EC
:102F2000002BF0D1FEF7F8FB7860294B1B68284A8C
:102F300023F08063136008E0FEF7EEFB02467B6837
:102F4000D31A022B01D903233EE0214B1B6803F067
:102F50000063002BF0D11E4B1E4A5A601C4B1E4AC8
:102F6000C3F884201A4BDB68194A23F4F853D36062
:102F7000174BDB68164A23F40053D360144BDB680D
:102F8000134A43F41F03D360114BDB68104A43F428
:102F90000013D3600E4B5B6F0D4A23F001035367A0
:102FA0000B4B5B6F0A4A43F0807353670B4B0C4A21
:102FB0001A600C4B1B681846FEF76AFB0346002B91
:102FC00001D0012300E0002318460837BD4680BD2C
:102FD0000038024010300004003000200C000020B7
:102FE0000024F4001000002080B582B000AF7860AB
:102FF0007B68002B01D101233FE07B6893F83D30D3
:10300000DBB2002B06D17B68002283F83C20786875
:10301000FEF746FA7B68242283F83D207B681B6814
:10302000DA687B681B6822F40052DA60786800F086
:10303000F9F97B681B681A697B681B6822F4904267
:103040001A617B681B685A697B681B6822F02A0238
:103050005A617B681B68DA687B681B6842F400521F
:10306000DA607B6800221A647B68202283F83D20A6
:103070007B68202283F83E20002318460837BD468F
:1030800080BD80B582B000AF78607B68002B01D135
:10309000012321E07B68242283F83D207B681B68A4
:1030A000DA687B681B6822F40052DA607868FEF701
:1030B00073FA7B6800221A647B68002283F83D2043
:1030C0007B68002283F83E207B6800221A637B68BD
:1030D000002283F83C20002318460837BD4680BDF7
:1030E00080B58AB002AFF860B9603B601346FB80E0
:1030F00000237B61FB6893F83D30DBB2202B7CD151
:10310000BB68002B02D0FB88002B01D1012375E0A6
:10311000FB6893F83C30012B01D102236EE0FB6881
:10312000012283F83C20FB6800221A64FB682122FC
:1031300083F83D20FEF7F0FA7861FB68FA889A84FC
:10314000FB68FA88DA84FB689B68B3F5805F08D176
:10315000FB681B69002B04D10023FB61BB68BB61CA
:1031600003E0BB68FB610023BB61FB68002283F8BE
:103170003C202AE03B6800937B6900228021F868AC
:1031800000F0E2F80346002B01D0032336E0FB6990
:10319000002B0BD1BB691B881A46FB681B68C2F366
:1031A00008025A60BB690233BB6107E0FB691A7809
:1031B000FB681B685A60FB690133FB61FB68DB8CB1
:1031C0009BB2013B9AB2FB68DA84FB68DB8C9BB252
:1031D000002BCFD13B6800937B6900224021F86827
:1031E00000F0B2F80346002B01D0032306E0FB6891
:1031F000202283F83D20002300E0022318462037D8
:10320000BD4680BD80B58AB002AFF860B9603B6052
:103210001346FB8000237B61FB6893F83E30DBB2F2
:10322000202B40F08C80BB68002B02D0FB88002B49
:1032300001D1012384E0FB6893F83C30012B01D1DC
:1032400002237DE0FB68012283F83C20FB6800221A
:103250001A64FB68222283F83E20FB6800221A636E
:10326000FEF75AFA7861FB68FA889A85FB68FA8853
:10327000DA85FB689B68B3F5805F08D1FB681B6942
:10328000002B04D10023FB61BB68BB6103E0BB687A
:10329000FB610023BB61FB68002283F83C2043E014
:1032A0003B6800937B6900222021F86800F04CF80D
:1032B0000346002B01D0032342E0FB69002B0CD115
:1032C000FB681B685B689BB2C3F308039AB2BB69D7
:1032D0001A80BB690233BB611FE0FB689B68B3F5D2
:1032E000805F07D0FB689B68002B0AD1FB681B69D5
:1032F000002B06D1FB681B685B68DAB2FB691A70A9
:1033000008E0FB681B685B68DBB203F07F03DAB29E
:10331000FB691A70FB690133FB61FB68DB8D9BB2B3
:10332000013B9AB2FB68DA85FB68DB8D9BB2002B10
:10333000B6D1FB68202283F83E20002300E0022360
:1033400018462037BD4680BD80B590B000AFF8600C
:10335000B9603B601346FB7150E0BB6CB3F1FF3FBB
:103360004CD0BB6C002B07D0FEF7D6F902463B6869
:10337000D31ABA6C9A4241D2FB681B680C33BB6209
:10338000BB6A53E8003F7B627B6A23F4D073FB6324
:10339000FB681B680C33FA6B7A633B63396B7A6B9F
:1033A00041E80023FB62FB6A002BE5D1FB681B6848
:1033B00014337B617B6953E8003F3B613B6923F039
:1033C0000103BB63FB681B681433BA6B3A62FB6191
:1033D000F9693A6A41E80023BB61BB69002BE5D17A
:1033E000FB68202283F83D20FB68202283F83E20E2
:1033F000FB68002283F83C2003230FE0FB681B6876
:103400001A68BB681340BA689A420CBF01230023B4
:10341000DBB21A46FB799A429FD000231846403708
:10342000BD4680BD2DE9B04FC0B000AFC7F8F40075
:10343000D7F8F4301B681B6923F44050D7F8F430F8
:10344000D968D7F8F4301A6840EA01031361D7F855
:10345000F4309A68D7F8F4301B691A43D7F8F4307F
:103460005B691A43D7F8F430DB691343C7F8F830C7
:10347000D7F8F4301B68DB6823F4164121F00C0107
:10348000D7F8F4301A68D7F8F8300B43D360D7F880
:10349000F4301B685B6923F44070D7F8F430996905
:1034A000D7F8F4301A6840EA01035361D7F8F430D2
:1034B0001A688F4B9A4205D0D7F8F4301A688D4BB2
:1034C0009A4204D1FFF7AEFCC7F8FC0003E0FFF717
:1034D00095FCC7F8FC00D7F8F430DB69B3F5004F72
:1034E00040F00C81D7F8FC300022C7F8E830C7F86C
:1034F000EC20D7E93A4522462B469118B9655B4145
:10350000FB65D7E91623214612EB0108294643EB58
:1035100001094FF000024FF000034FEAC90343EAEC
:1035200058734FEAC80290469946234618EB0303A6
:10353000C7F8E0302B4649EB0303C7F8E430D7F86F
:10354000F4305B680022C7F8D830C7F8DC20D7E930
:1035500036120B46DB183B65134642EB03037B65D3
:10356000D7E91423D7E93801FCF78AFE02460B4657
:10357000614BA3FB02235B091C01D7F8FC3000223E
:10358000C7F8D030C7F8D420D7E9348942464B4633
:103590009118B9645B41FB64D7E91223414612EBF1
:1035A000010A494643EB010B4FF000024FF00003C4
:1035B0004FEACB0343EA5A734FEACA0292469B464C
:1035C00043461AEB0303C7F8C8304B464BEB0303E3
:1035D000C7F8CC30D7F8F4305B680022C7F8C030A9
:1035E000C7F8C420D7E930120B46DB183B641346FA
:1035F00042EB03037B64D7E91023D7E93201FCF7E0
:103600003FFE02460B4611463B4BA3FB01235B09E1
:10361000642202FB03F3CB1ADB0003F13202364BC8
:10362000A3FB02235B095B0003F4F8731C44D7F887
:10363000FC300022C7F8B830C7F8BC20D7E92E8983
:1036400042464B469118B9635B41FB63D7E90E23B1
:1036500041465118396349464B417B634FF00002A4
:103660004FF00003D7E90CAB5946CB00514643EA73
:1036700051735146CA0010461946034642469B18EC
:10368000C7F8B0304B460A4642EB0303C7F8B430E4
:10369000D7F8F4305B680022C7F8A830C7F8AC2030
:1036A000D7E92A120B46DB18BB62134642EB030331
:1036B000FB62D7E90A23D7E92C01FCF7E1FD0246BA
:1036C0000B460D4BA3FB02135B09642101FB03F3C3
:1036D000D31ADB003233084AA2FB03235B0903F051
:1036E0000702D7F8F4301B6822449A6005E100BF56
:1036F00000100140001401401F85EB51D7F8FC3049
:103700000022C7F8A030C7F8A420D7E9288942468C
:103710004B46911839625B417B62D7E908234146E9
:103720005418494643EB01054FF000024FF00003E7
:10373000EB0043EA5473E20014461D464346E31887
:10374000C7F898304B4645EB0303C7F89C30D7F8D1
:10375000F4305B680022C7F89030C7F894204FF02F
:1037600000024FF00003D7E9244529468B0021468B
:1037700043EA917321468A00D7E92601FCF780FDD0
:1037800002460B46604BA3FB02235B091C01D7F8E2
:10379000FC300022C7F88830C7F88C20D7E922898E
:1037A00042464B469118B9615B41FB61D7E906235C
:1037B00041465118396149464B417B614FF0000247
:1037C0004FF00003D7E904AB5946CB00514643EA1A
:1037D00051735146CA0010461946034642469B188B
:1037E000C7F880304B460A4642EB0303C7F88430E3
:1037F000D7F8F4305B680022BB67FA674FF000022D
:103800004FF00003D7E91E8949468B00414643EA41
:10381000917341468A00D7E92001FCF731FD024649
:103820000B46394BA3FB02135B09642101FB03F335
:10383000D31A1B013233344AA2FB03235B0903F082
:10384000F0031C44D7F8FC3000223B677A67D7E9C5
:103850001C8942464B469118B9605B41FB60D7E931
:10386000022341465118396049464B417B604FF075
:1038700000024FF00003D7E900AB5946CB00514698
:1038800043EA51735146CA00104619460346424660
:103890009B18BB664B460A4642EB0303FB66D7F810
:1038A000F4305B6800223B667A664FF000024FF00E
:1038B0000003D7E9188949468B00414643EA9173D2
:1038C00041468A00D7E91A01FCF7DAFC02460B46AA
:1038D0000D4BA3FB02135B09642101FB03F3D31A15
:1038E0001B013233084AA2FB03235B0903F00F02DA
:1038F000D7F8F4301B6822449A6000BF07F5807740
:10390000BD46BDE8B08F00BF1F85EB51014B186865
:10391000704700BF1800002070B50D4D0D4C641BA2
:10392000A4100026A64209D10B4D0C4C00F08EFCD1
:10393000641BA4100026A64205D170BD55F8043BB7
:1039400098470136EEE755F8043B98470136F2E711
:10395000D4460008D4460008D4460008D8460008DB
:1039600002440346934200D1704703F8011BF9E774
:1039700000B59BB0009104916FF000410591029158
:1039800005490391694600F06FF8009B00221A7008
:103990001BB05DF804FB00BF0802FFFF13460A4698
:1039A000014602480068FFF7E3BF00BF180000208F
:1039B0002DE9F0478E689E4282460C4690461F468F
:1039C00038D88A8912F4906F32D025680969A5EB3E
:1039D0000109656905EB450505EBD57501334B44D8
:1039E0006D109D4238BF1D46530531D5294600F064
:1039F00063FB064650B90C23CAF80030A38943F094
:103A00004003A3814FF0FF30BDE8F08721694A46AB
:103A100000F0BEFAA38923F4906343F08003A381EE
:103A2000266165614E44A5EB09052660A5603E460A
:103A3000BE4200D93E4620683246414600F0B6FA02
:103A4000A3689B1BA3602368334423600020DBE74B
:103A50002A4600F0A5FB06460028E1D12169504620
:103A600000F0BEFAC7E700002DE9F04F98468B89B9
:103A70001B069DB007460D4614460ED50B6963B96B
:103A8000402100F019FB2860286120B90C233B601D
:103A90004FF0FF30D1E040236B61002309932023D6
:103AA0008DF82930CDF80C803023DFF8A8818DF80F
:103AB0002A304FF0010923469A4613F8012B0AB128
:103AC000252AF9D1BAEB040B0BD05B4622462946D6
:103AD0003846FFF76DFF013000F0AA80099A5A447A
:103AE00009929AF80030002B00F0A28000234FF0DA
:103AF000FF32CDE905230AF1010A049307938DF8FB
:103B000053301A935446052214F8011B5148FCF710
:103B100067FB049AD8B9D00644BF20238DF85330F0
:103B2000110744BF2B238DF853309AF800302A2B0D
:103B300015D0079A544600204FF00A0C214611F880
:103B4000013B303B092B4ED9B0B1079214E0A0EBFA
:103B5000080309FA03F313430493A246D2E7039B35
:103B6000191D1B680391002BBBBF5B4242F0020290
:103B700007930793B8BF049223782E2B0CD1637858
:103B80002A2B35D1039B1A1D1B680392002BB8BF4B
:103B90004FF0FF3302340593DFF8C8A021780322E9
:103BA0005046FCF71DFB40B14023A0EB0A0003FA8E
:103BB00000F0049B03430134049314F8011B2648CE
:103BC0008DF828100622FCF70BFB002838D0234B79
:103BD0001BBB039B073323F0070308330393099BA5
:103BE0003344099367E70CFB02320C460120A5E73A
:103BF00000230134059319464FF00A0C204610F8B3
:103C0000012B303A092A03D9002BC5D00591C3E70F
:103C10000CFB012104460123F0E703AB00932A4685
:103C20000F4B04A93846AFF30080421C0646D6D19C
:103C3000AB895B063FF52CAF09981DB0BDE8F08F4E
:103C400003AB00932A46064B04A9384600F07AF8E5
:103C5000EBE700BF98460008A246000800000000FD
:103C6000B13900089E4600082DE9F04716469946EE
:103C70008A680B69DDF820809342B8BF1346336031
:103C800091F8432007460C460AB10133336023689C
:103C9000990642BF336802333360256815F0060584
:103CA00006D104F1190AE36832689B1AAB4226DC9C
:103CB00094F84320131E226818BF012392062BD4C8
:103CC00004F1430249463846C04701301ED02368FC
:103CD000E568326803F00603042B08BFAD1AA36839
:103CE00022690CBF25EAE57500259342C4BF9B1AE3
:103CF000ED1800261A34B5421AD1002008E001233D
:103D0000524649463846C047013003D14FF0FF3094
:103D1000BDE8F0870135C6E7E1185A1C302081F86C
:103D20004300224494F8451082F843100233C7E759
:103D30000123224649463846C0470130E6D00136C5
:103D4000D9E700002DE9FF470F7E0C9D782F9146A3
:103D500080460C469A4601F1430207D8622F0AD8E2
:103D6000002F00F0D880582F00F0A38004F1420506
:103D700084F842703AE0A7F16303152BF6D801A14D
:103D800051F823F0DD3D0008F13D00086D3D0008CD
:103D90006D3D00086D3D00086D3D0008F13D0008D7
:103DA0006D3D00086D3D00086D3D00086D3D00084B
:103DB000FD3E0008213E0008DF3E00086D3D000882
:103DC0006D3D00081F3F00086D3D0008213E0008C2
:103DD0006D3D00086D3D0008E73E00082B681A1D88
:103DE0001B682A6004F1420584F842300123A3E0F5
:103DF00020682968060601F104030AD50E682B60C5
:103E0000002E03DA2D23764284F843305E480A23DD
:103E100019E00E682B6010F0400F18BF36B2EFE7C4
:103E20002B682068191D2960010601D51E6802E073
:103E30004606FBD51E8854486F2F0CBF08230A2363
:103E4000002184F843106568A560002DA2BF216899
:103E500021F0040121600EB9002D4DD01546B6FBAE
:103E6000F3F103FB1167C75D05F8017D3746BB42DF
:103E70000E46F4D9082B0BD12368DE0708D5236939
:103E800061689942DEBF302305F8013C05F1FF353A
:103E9000521B2261CDF800A04B4603AA21464046A2
:103EA000FFF7E2FE01304CD14FF0FF3004B0BDE827
:103EB000F087354881F845702968236851F8046B0C
:103EC00029601D0614D5DF0744BF43F0200323609B
:103ED0001EB9236823F0200323601023B0E7236872
:103EE00043F0200323607823284884F84530E3E733
:103EF000590648BFB6B2E6E71546BBE72B68266809
:103F00006169181D286035061B6801D5196002E03B
:103F10007006FBD51980002323611546BAE72B688C
:103F20001A1D2A601D68626800212846FCF758F9AE
:103F300008B1401B606063682361002384F843304C
:103F4000A8E723692A4649464046D0470130ABD00E
:103F500023689B0713D4E068039B9842B8BF1846B8
:103F6000A4E70123324649464046D04701309BD062
:103F70000135E36803995B1AAB42F2DCEBE70025FD
:103F800004F11906F5E700BFA9460008BA46000883
:103F90000A44914200F1FF3300D1704710B511F887
:103FA000014B03F8014F9142F9D110BD884210B581
:103FB00001EB020402D98442234607D8431EA142E2
:103FC00008D011F8012B03F8012FF8E7024401464D
:103FD0008A4200D110BD13F8014D02F8014DF7E7F8
:103FE00037B5002944D051F8043C0190002BA1F1D1
:103FF0000404B8BFE41800F013F91E4A01981368CE
:1040000033B96360146003B0BDE8304000F00EB90E
:10401000A34208D9256861198B4201BF19685B6802
:1040200049192160EDE71A465B680BB1A342FAD942
:1040300011685518A5420BD1246821445418A34295
:104040001160E0D11C685B68536021441160DAE7BD
:1040500002D90C230360D6E7256861198B4204BF9F
:1040600019685B68636004BF491921605460CAE73E
:1040700003B030BD5002002070B50E4E0C463168C2
:10408000054611B900F0BCF830602146284600F022
:10409000B7F8431C0AD0C41C24F00304A04207D084
:1040A000211A284600F0ACF8013001D14FF0FF345E
:1040B000204670BD540200202DE9F041CD1C25F0B2
:1040C000030508350C2D38BF0C25002D074601DBF4
:1040D000A94205D90C233B6000263046BDE8F0819B
:1040E0002E4E00F09DF833681C4634BB29463846F6
:1040F000FFF7C2FF431C04464DD134682646002E0C
:1041000040D123683146384604EB030800F078F8C4
:1041100080453AD1216803356D1A25F0030508352D
:104120000C2D38BF0C2529463846FFF7A5FF013076
:104130002BD023682B4423600EE02268521B1ED430
:104140000B2A16D96119A342256018BF596063680C
:1041500008BF316062514B60384604F10B0600F035
:1041600065F826F00706231DF21AB6D09B1BA35054
:10417000B3E76268A3420CBF32605A60ECE72346A3
:104180006468B2E734467668B9E70C233B6038468A
:1041900000F04CF8A1E72560DEE700BF50020020E8
:1041A0002DE9F041804614460E4621B9BDE8F041A4
:1041B0001146FFF781BF2AB9FFF712FF25462846AF
:1041C000BDE8F08100F038F88442074602D8B4EB2D
:1041D000500F12D821464046FFF76EFF05460028D3
:1041E000EDD0BC422246314628BF3A46FFF7D0FE0A
:1041F00031464046FFF7F4FEE1E73546DFE70000D1
:1042000038B5064D0023044608462B60FDF7ACF890
:10421000431C02D12B6803B1236038BD5802002033
:10422000014800F011B800BF5C020020014800F016
:104230000CB800BF5C02002051F8043C181F002B92
:10424000BCBF0B58C018704770477047F8B500BF27
:10425000F8BC08BC9E467047F8B500BFF8BC08BC67
:044260009E467047BF
:10426400456E61626C6520726561642F7772697452
:10427400652070726F74656374206F6E2064696664
:10428400666572656E7420736563746F7273206FF4
:104294006620746865207573657220666C61736846
:1042A400200D0A00526561642064617461206672A5
:1042B4006F6D20646966666572656E74206D656DE8
:1042C4006F72696573206F6620746865206D696319
:1042D400726F636F6E74726F6C6C6572200D0A007E
:1042E4005265616420616C6C207468652073656339
:1042F400746F722070726F74656374696F6E20736B
:104304007461747573200D0A0000000052656164C5
:1043140020746865204F545020636F6E74656E740A
:1043240073200D0A0000000044697361626C65200B
:10433400726561642F77726974652070726F746539
:104344006374696F6E206F6E20646966666572655A
:104354006E7420736563746F7273206F6620746863
:1043640065207573657220666C617368200D0A00A0
:10437400496E7661696C6420636F6D6D616E642053
:10438400636F64652072656365697665642066722F
:104394006F6D20686F7374202121200D0A000000C6
:1043A400526561642074686520626F6F746C6F611C
:1043B4006465722076657273696F6E2066726F6DC4
:1043C40020746865204D4355200D0A004352432054
:1043D400566572696669636174696F6E20537563AB
:1043E4006365737366756C200D0A000043524320A5
:1043F400566572696669636174696F6E2066616986
:104404006C6564200D0A000052656164207468655F
:1044140020636F6D6D616E647320737570706F725D
:104424007465642062792074686520626F6F746CAF
:104434006F61646572200D0A0000000052656164BA
:1044440020746865204D4355206368697020696451
:10445400656E74696669636174696F6E206E756DEB
:10446400626572200D0A00005265616420746865FB
:1044740020464C41534820526561642050726F7449
:10448400656374696F6E206C6576656C200D0A0037
:104494004A756D7020626F6F746C6F616465722011
:1044A400746F207370656369666965642061646410
:1044B4007265737320200D0A000000004164647269
:1044C40065737320566572696669636174696F6E9A
:1044D400205375636365737366756C200D0A000061
:1044E4004A756D7020746F203A2030782558200D5D
:1044F4000A00000041646472657373205665726932
:104504006669636174696F6E204661696C656420D5
:104514000D0A00004D617373206572617365206F2D
:104524007220736563746F72206572617365206FA6
:104534006620746865207573657220666C617368A3
:10454400200D0A00536563746F72204572617365B0
:10455400205375636365737366756C200D0A0000E0
:10456400536563746F722045726173652046616997
:104574006C6564200D0A0000496E76616C696420E4
:10458400536563746F72204E756D626572200D0AF7
:1045940000000000577269746520646174612069C9
:1045A4006E746F20646966666572656E74206D65ED
:1045B4006D6F72696573206F6620746865204D4362
:1045C40055200D0A000000005061796C6F61642071
:1045D40053756363657373200D0A00005061796C31
:1045E4006F6164204661696C64200D0A000000005C
:1045F40043424C5F464C4153485F4D4153535F45E2
:1046040052415345202D2D2D2D2D2D2D2D2D2D2D6C
:104614002D2D2D2D2D2D2D2D2D2D2D2D2D2D2D2DC6
:104624002D2D200D0A00000048414C5F5374617425
:104634007573203D2048414C5F464C4153484578B2
:104644005F4572617365203D3D3D3D3D20307825D9
:1046540078200D0A00000000426F6F746C6F64656F
:10466400722073746172746564202121200D0A0024
:1046740048415254204641554C540000000000006B
:1046840000000000010203040607080900000000FE
:1046940001020304232D302B2000686C4C00656656
:1046A400674546470030313233343536373839417F
:1046B4004243444546003031323334353637383995
:0846C400616263646566000099
:0846CC00E4BBFF7F01000000C8
:0446D400C501000814
:0446D800A101000834
:1046DC001011121314151617181920210024F400A8
:1046EC0010000000010000001C0000200000000071
:1046FC0000000000000000000000000000000000AE
:10470C00000000000000000000000000000000009D
:10471C00000000000000000000000000000000008D
:10472C00000000000000000000000000000000007D
:10473C00000000000000000000000000000000006D
:0C474C0000000000000000000000000061
:04000005080015F9E1
:00000001FF
